{
  "address": "0x7E1b2c3f07E1C77A6fcC1CdB4cd213bBB0B5c8A8",
  "abi": [
    {
      "inputs": [
        {
          "internalType": "string",
          "name": "_uri",
          "type": "string"
        }
      ],
      "stateMutability": "nonpayable",
      "type": "constructor"
    },
    {
      "inputs": [
        {
          "internalType": "address",
          "name": "sender",
          "type": "address"
        },
        {
          "internalType": "uint256",
          "name": "balance",
          "type": "uint256"
        },
        {
          "internalType": "uint256",
          "name": "needed",
          "type": "uint256"
        },
        {
          "internalType": "uint256",
          "name": "tokenId",
          "type": "uint256"
        }
      ],
      "name": "ERC1155InsufficientBalance",
      "type": "error"
    },
    {
      "inputs": [
        {
          "internalType": "address",
          "name": "approver",
          "type": "address"
        }
      ],
      "name": "ERC1155InvalidApprover",
      "type": "error"
    },
    {
      "inputs": [
        {
          "internalType": "uint256",
          "name": "idsLength",
          "type": "uint256"
        },
        {
          "internalType": "uint256",
          "name": "valuesLength",
          "type": "uint256"
        }
      ],
      "name": "ERC1155InvalidArrayLength",
      "type": "error"
    },
    {
      "inputs": [
        {
          "internalType": "address",
          "name": "operator",
          "type": "address"
        }
      ],
      "name": "ERC1155InvalidOperator",
      "type": "error"
    },
    {
      "inputs": [
        {
          "internalType": "address",
          "name": "receiver",
          "type": "address"
        }
      ],
      "name": "ERC1155InvalidReceiver",
      "type": "error"
    },
    {
      "inputs": [
        {
          "internalType": "address",
          "name": "sender",
          "type": "address"
        }
      ],
      "name": "ERC1155InvalidSender",
      "type": "error"
    },
    {
      "inputs": [
        {
          "internalType": "address",
          "name": "operator",
          "type": "address"
        },
        {
          "internalType": "address",
          "name": "owner",
          "type": "address"
        }
      ],
      "name": "ERC1155MissingApprovalForAll",
      "type": "error"
    },
    {
      "inputs": [
        {
          "internalType": "address",
          "name": "owner",
          "type": "address"
        }
      ],
      "name": "OwnableInvalidOwner",
      "type": "error"
    },
    {
      "inputs": [
        {
          "internalType": "address",
          "name": "account",
          "type": "address"
        }
      ],
      "name": "OwnableUnauthorizedAccount",
      "type": "error"
    },
    {
      "anonymous": false,
      "inputs": [
        {
          "indexed": true,
          "internalType": "address",
          "name": "account",
          "type": "address"
        },
        {
          "indexed": true,
          "internalType": "address",
          "name": "operator",
          "type": "address"
        },
        {
          "indexed": false,
          "internalType": "bool",
          "name": "approved",
          "type": "bool"
        }
      ],
      "name": "ApprovalForAll",
      "type": "event"
    },
    {
      "anonymous": false,
      "inputs": [
        {
          "indexed": true,
          "internalType": "address",
          "name": "previousOwner",
          "type": "address"
        },
        {
          "indexed": true,
          "internalType": "address",
          "name": "newOwner",
          "type": "address"
        }
      ],
      "name": "OwnershipTransferred",
      "type": "event"
    },
    {
      "anonymous": false,
      "inputs": [
        {
          "indexed": true,
          "internalType": "address",
          "name": "operator",
          "type": "address"
        },
        {
          "indexed": true,
          "internalType": "address",
          "name": "from",
          "type": "address"
        },
        {
          "indexed": true,
          "internalType": "address",
          "name": "to",
          "type": "address"
        },
        {
          "indexed": false,
          "internalType": "uint256[]",
          "name": "ids",
          "type": "uint256[]"
        },
        {
          "indexed": false,
          "internalType": "uint256[]",
          "name": "values",
          "type": "uint256[]"
        }
      ],
      "name": "TransferBatch",
      "type": "event"
    },
    {
      "anonymous": false,
      "inputs": [
        {
          "indexed": true,
          "internalType": "address",
          "name": "operator",
          "type": "address"
        },
        {
          "indexed": true,
          "internalType": "address",
          "name": "from",
          "type": "address"
        },
        {
          "indexed": true,
          "internalType": "address",
          "name": "to",
          "type": "address"
        },
        {
          "indexed": false,
          "internalType": "uint256",
          "name": "id",
          "type": "uint256"
        },
        {
          "indexed": false,
          "internalType": "uint256",
          "name": "value",
          "type": "uint256"
        }
      ],
      "name": "TransferSingle",
      "type": "event"
    },
    {
      "anonymous": false,
      "inputs": [
        {
          "indexed": false,
          "internalType": "string",
          "name": "value",
          "type": "string"
        },
        {
          "indexed": true,
          "internalType": "uint256",
          "name": "id",
          "type": "uint256"
        }
      ],
      "name": "URI",
      "type": "event"
    },
    {
      "anonymous": false,
      "inputs": [
        {
          "indexed": true,
          "internalType": "address",
          "name": "_burner",
          "type": "address"
        },
        {
          "indexed": false,
          "internalType": "bool",
          "name": "_value",
          "type": "bool"
        }
      ],
      "name": "UpdateBurner",
      "type": "event"
    },
    {
      "anonymous": false,
      "inputs": [
        {
          "indexed": true,
          "internalType": "address",
          "name": "_minter",
          "type": "address"
        },
        {
          "indexed": false,
          "internalType": "bool",
          "name": "_value",
          "type": "bool"
        }
      ],
      "name": "UpdateMinter",
      "type": "event"
    },
    {
      "anonymous": false,
      "inputs": [
        {
          "indexed": true,
          "internalType": "string",
          "name": "_uri",
          "type": "string"
        }
      ],
      "name": "UpdateURI",
      "type": "event"
    },
    {
      "inputs": [],
      "name": "NAME",
      "outputs": [
        {
          "internalType": "string",
          "name": "",
          "type": "string"
        }
      ],
      "stateMutability": "view",
      "type": "function"
    },
    {
      "inputs": [],
      "name": "SYMBOL",
      "outputs": [
        {
          "internalType": "string",
          "name": "",
          "type": "string"
        }
      ],
      "stateMutability": "view",
      "type": "function"
    },
    {
      "inputs": [
        {
          "internalType": "address",
          "name": "_burner",
          "type": "address"
        }
      ],
      "name": "addBurner",
      "outputs": [],
      "stateMutability": "nonpayable",
      "type": "function"
    },
    {
      "inputs": [
        {
          "internalType": "address",
          "name": "_minter",
          "type": "address"
        }
      ],
      "name": "addMinter",
      "outputs": [],
      "stateMutability": "nonpayable",
      "type": "function"
    },
    {
      "inputs": [
        {
          "internalType": "address",
          "name": "account",
          "type": "address"
        },
        {
          "internalType": "uint256",
          "name": "id",
          "type": "uint256"
        }
      ],
      "name": "balanceOf",
      "outputs": [
        {
          "internalType": "uint256",
          "name": "",
          "type": "uint256"
        }
      ],
      "stateMutability": "view",
      "type": "function"
    },
    {
      "inputs": [
        {
          "internalType": "address[]",
          "name": "accounts",
          "type": "address[]"
        },
        {
          "internalType": "uint256[]",
          "name": "ids",
          "type": "uint256[]"
        }
      ],
      "name": "balanceOfBatch",
      "outputs": [
        {
          "internalType": "uint256[]",
          "name": "",
          "type": "uint256[]"
        }
      ],
      "stateMutability": "view",
      "type": "function"
    },
    {
      "inputs": [
        {
          "internalType": "address",
          "name": "account",
          "type": "address"
        },
        {
          "internalType": "uint256[]",
          "name": "ids",
          "type": "uint256[]"
        },
        {
          "internalType": "uint256[]",
          "name": "amounts",
          "type": "uint256[]"
        }
      ],
      "name": "burn",
      "outputs": [],
      "stateMutability": "nonpayable",
      "type": "function"
    },
    {
      "inputs": [
        {
          "internalType": "address[]",
          "name": "accounts",
          "type": "address[]"
        },
        {
          "internalType": "uint256[][]",
          "name": "ids",
          "type": "uint256[][]"
        },
        {
          "internalType": "uint256[][]",
          "name": "amounts",
          "type": "uint256[][]"
        }
      ],
      "name": "burnBatch",
      "outputs": [],
      "stateMutability": "nonpayable",
      "type": "function"
    },
    {
      "inputs": [
        {
          "internalType": "address",
          "name": "",
          "type": "address"
        }
      ],
      "name": "burners",
      "outputs": [
        {
          "internalType": "bool",
          "name": "",
          "type": "bool"
        }
      ],
      "stateMutability": "view",
      "type": "function"
    },
    {
      "inputs": [
        {
          "internalType": "address",
          "name": "account",
          "type": "address"
        },
        {
          "internalType": "address",
          "name": "operator",
          "type": "address"
        }
      ],
      "name": "isApprovedForAll",
      "outputs": [
        {
          "internalType": "bool",
          "name": "",
          "type": "bool"
        }
      ],
      "stateMutability": "view",
      "type": "function"
    },
    {
      "inputs": [
        {
          "internalType": "address[]",
          "name": "recipients",
          "type": "address[]"
        },
        {
          "internalType": "uint256[]",
          "name": "ids",
          "type": "uint256[]"
        },
        {
          "internalType": "uint256[]",
          "name": "amounts",
          "type": "uint256[]"
        }
      ],
      "name": "mint",
      "outputs": [],
      "stateMutability": "nonpayable",
      "type": "function"
    },
    {
      "inputs": [
        {
          "internalType": "address[]",
          "name": "recipients",
          "type": "address[]"
        },
        {
          "internalType": "uint256[][]",
          "name": "ids",
          "type": "uint256[][]"
        },
        {
          "internalType": "uint256[][]",
          "name": "amounts",
          "type": "uint256[][]"
        }
      ],
      "name": "mintBatch",
      "outputs": [],
      "stateMutability": "nonpayable",
      "type": "function"
    },
    {
      "inputs": [
        {
          "internalType": "address",
          "name": "",
          "type": "address"
        }
      ],
      "name": "minters",
      "outputs": [
        {
          "internalType": "bool",
          "name": "",
          "type": "bool"
        }
      ],
      "stateMutability": "view",
      "type": "function"
    },
    {
      "inputs": [],
      "name": "owner",
      "outputs": [
        {
          "internalType": "address",
          "name": "",
          "type": "address"
        }
      ],
      "stateMutability": "view",
      "type": "function"
    },
    {
      "inputs": [
        {
          "internalType": "address",
          "name": "_burner",
          "type": "address"
        }
      ],
      "name": "removeBurner",
      "outputs": [],
      "stateMutability": "nonpayable",
      "type": "function"
    },
    {
      "inputs": [
        {
          "internalType": "address",
          "name": "_minter",
          "type": "address"
        }
      ],
      "name": "removeMinter",
      "outputs": [],
      "stateMutability": "nonpayable",
      "type": "function"
    },
    {
      "inputs": [],
      "name": "renounceOwnership",
      "outputs": [],
      "stateMutability": "nonpayable",
      "type": "function"
    },
    {
      "inputs": [
        {
          "internalType": "address",
          "name": "from",
          "type": "address"
        },
        {
          "internalType": "address",
          "name": "to",
          "type": "address"
        },
        {
          "internalType": "uint256[]",
          "name": "ids",
          "type": "uint256[]"
        },
        {
          "internalType": "uint256[]",
          "name": "values",
          "type": "uint256[]"
        },
        {
          "internalType": "bytes",
          "name": "data",
          "type": "bytes"
        }
      ],
      "name": "safeBatchTransferFrom",
      "outputs": [],
      "stateMutability": "nonpayable",
      "type": "function"
    },
    {
      "inputs": [
        {
          "internalType": "address",
          "name": "from",
          "type": "address"
        },
        {
          "internalType": "address",
          "name": "to",
          "type": "address"
        },
        {
          "internalType": "uint256",
          "name": "id",
          "type": "uint256"
        },
        {
          "internalType": "uint256",
          "name": "value",
          "type": "uint256"
        },
        {
          "internalType": "bytes",
          "name": "data",
          "type": "bytes"
        }
      ],
      "name": "safeTransferFrom",
      "outputs": [],
      "stateMutability": "nonpayable",
      "type": "function"
    },
    {
      "inputs": [
        {
          "internalType": "address",
          "name": "operator",
          "type": "address"
        },
        {
          "internalType": "bool",
          "name": "approved",
          "type": "bool"
        }
      ],
      "name": "setApprovalForAll",
      "outputs": [],
      "stateMutability": "nonpayable",
      "type": "function"
    },
    {
      "inputs": [
        {
          "internalType": "bytes4",
          "name": "interfaceId",
          "type": "bytes4"
        }
      ],
      "name": "supportsInterface",
      "outputs": [
        {
          "internalType": "bool",
          "name": "",
          "type": "bool"
        }
      ],
      "stateMutability": "view",
      "type": "function"
    },
    {
      "inputs": [
        {
          "internalType": "address",
          "name": "newOwner",
          "type": "address"
        }
      ],
      "name": "transferOwnership",
      "outputs": [],
      "stateMutability": "nonpayable",
      "type": "function"
    },
    {
      "inputs": [
        {
          "internalType": "string",
          "name": "_newURI",
          "type": "string"
        }
      ],
      "name": "updateUri",
      "outputs": [],
      "stateMutability": "nonpayable",
      "type": "function"
    },
    {
      "inputs": [
        {
          "internalType": "uint256",
          "name": "",
          "type": "uint256"
        }
      ],
      "name": "uri",
      "outputs": [
        {
          "internalType": "string",
          "name": "",
          "type": "string"
        }
      ],
      "stateMutability": "view",
      "type": "function"
    }
  ],
  "transactionHash": "0xba6991b4f0e3113edb48e51bc97bd695f3591795091a71d85091eda8e3be6a48",
  "args": [
    "http://example.com/"
  ],
  "numDeployments": 1,
  "solcInputHash": "31670efb592d92b8f4ac65ee8e55b791",
  "bytecode": "0x60806040523480156200001157600080fd5b506040516200202538038062002025833981016040819052620000349162000164565b33816200004181620000c4565b506001600160a01b0381166200007157604051631e4fbdf760e01b81526000600482015260240160405180910390fd5b6200007c81620000d6565b50806040516200008d91906200021c565b604051908190038120907f7d6e10e74d1c60489c754e7491b7d49907732ac426f0254914810d50ba6cc21890600090a25062000397565b6002620000d28282620002cb565b5050565b600380546001600160a01b038381166001600160a01b0319831681179093556040519116919082907f8be0079c531659141344cd1fd0a4f28419497f9722a3daafe3b4186f6b6457e090600090a35050565b634e487b7160e01b600052604160045260246000fd5b60005b838110156200015b57818101518382015260200162000141565b50506000910152565b6000602082840312156200017757600080fd5b81516001600160401b03808211156200018f57600080fd5b818401915084601f830112620001a457600080fd5b815181811115620001b957620001b962000128565b604051601f8201601f19908116603f01168101908382118183101715620001e457620001e462000128565b81604052828152876020848701011115620001fe57600080fd5b620002118360208301602088016200013e565b979650505050505050565b60008251620002308184602087016200013e565b9190910192915050565b600181811c908216806200024f57607f821691505b6020821081036200027057634e487b7160e01b600052602260045260246000fd5b50919050565b601f821115620002c6576000816000526020600020601f850160051c81016020861015620002a15750805b601f850160051c820191505b81811015620002c257828155600101620002ad565b5050505b505050565b81516001600160401b03811115620002e757620002e762000128565b620002ff81620002f884546200023a565b8462000276565b602080601f8311600181146200033757600084156200031e5750858301515b600019600386901b1c1916600185901b178555620002c2565b600085815260208120601f198616915b82811015620003685788860151825594840194600190910190840162000347565b5085821015620003875787850151600019600388901b60f8161c191681555b5050505050600190811b01905550565b611c7e80620003a76000396000f3fe608060405234801561001057600080fd5b50600436106101575760003560e01c8063715018a6116100c3578063e985e9c51161007c578063e985e9c514610327578063f242432a1461033a578063f2fde38b1461034d578063f44637ba14610360578063f46eccc414610373578063f76f8d781461039657600080fd5b8063715018a61461028f5780637970ce9f146102975780638da5cb5b146102aa578063983b2d56146102c5578063a22cb465146102d8578063a3f4df7e146102eb57600080fd5b80632eb2c2d6116101155780632eb2c2d6146102105780633092afd5146102235780633db0f8ab146102365780634e1273f414610249578063570b3c6a146102695780636d56461a1461027c57600080fd5b8062fdd58e1461015c57806301ffc9a71461018257806302846858146101a557806303d41e0e146101ba5780630e89341c146101dd578063122ed679146101fd575b600080fd5b61016f61016a3660046112db565b6103b8565b6040519081526020015b60405180910390f35b61019561019036600461131b565b6103e0565b6040519015158152602001610179565b6101b86101b336600461133f565b610430565b005b6101956101c836600461133f565b60056020526000908152604090205460ff1681565b6101f06101eb36600461135a565b61048e565b60405161017991906113c3565b6101b861020b366004611593565b610522565b6101b861021e366004611691565b6105f6565b6101b861023136600461133f565b61065d565b6101b861024436600461173a565b6106b4565b61025c6102573660046117a3565b610711565b6040516101799190611842565b6101b8610277366004611855565b6107dd565b6101b861028a366004611593565b61082f565b6101b86108e7565b6101b86102a53660046118a5565b6108fb565b6003546040516001600160a01b039091168152602001610179565b6101b86102d336600461133f565b6109c3565b6101b86102e63660046118f3565b610a22565b6101f06040518060400160405280601a81526020017f536563757265204c6971756964204469676974616c204368697000000000000081525081565b61019561033536600461192f565b610a31565b6101b8610348366004611962565b610a5f565b6101b861035b36600461133f565b610abe565b6101b861036e36600461133f565b610afc565b61019561038136600461133f565b60046020526000908152604090205460ff1681565b6101f06040518060400160405280600381526020016214d31160ea1b81525081565b6000818152602081815260408083206001600160a01b03861684529091529020545b92915050565b60006001600160e01b03198216636cdb3d1360e11b148061041157506001600160e01b031982166303a24d0760e21b145b806103da57506301ffc9a760e01b6001600160e01b03198316146103da565b610438610b5b565b6001600160a01b0381166000818152600560209081526040808320805460ff19169055519182527f61a38e21a1257ef9bf772ad61a4037c14a202b3730233b7253c725443c132d2d91015b60405180910390a250565b60606002805461049d906119c6565b80601f01602080910402602001604051908101604052809291908181526020018280546104c9906119c6565b80156105165780601f106104eb57610100808354040283529160200191610516565b820191906000526020600020905b8154815290600101906020018083116104f957829003601f168201915b50505050509050919050565b3360009081526004602052604090205460ff166105745760405162461bcd60e51b815260206004820152600b60248201526a18d85b9b9bdd081b5a5b9d60aa1b60448201526064015b60405180910390fd5b825160005b818110156105ef576105e785828151811061059657610596611a00565b60200260200101518583815181106105b0576105b0611a00565b60200260200101518584815181106105ca576105ca611a00565b602002602001015160405180602001604052806000815250610b88565b600101610579565b5050505050565b336001600160a01b038616811480159061061757506106158682610a31565b155b156106485760405163711bec9160e11b81526001600160a01b0380831660048301528716602482015260440161056b565b6106558686868686610bc6565b505050505050565b610665610b5b565b6001600160a01b0381166000818152600460209081526040808320805460ff19169055519182527fc6a23a0a2412457bc174b0b04538a04d162131389a2e6bafcb3c90d104004e169101610483565b3360009081526005602052604090205460ff166107015760405162461bcd60e51b815260206004820152600b60248201526a31b0b73737ba10313ab93760a91b604482015260640161056b565b61070c838383610c26565b505050565b606081518351146107425781518351604051635b05999160e01b81526004810192909252602482015260440161056b565b600083516001600160401b0381111561075d5761075d6113d6565b604051908082528060200260200182016040528015610786578160200160208202803683370190505b50905060005b84518110156107d5576020808202860101516107b0906020808402870101516103b8565b8282815181106107c2576107c2611a00565b602090810291909101015260010161078c565b509392505050565b6107e5610b5b565b6107ee81610c6c565b806040516107fc9190611a16565b604051908190038120907f7d6e10e74d1c60489c754e7491b7d49907732ac426f0254914810d50ba6cc21890600090a250565b3360009081526005602052604090205460ff1661087c5760405162461bcd60e51b815260206004820152600b60248201526a31b0b73737ba10313ab93760a91b604482015260640161056b565b825160005b818110156105ef576108df85828151811061089e5761089e611a00565b60200260200101518583815181106108b8576108b8611a00565b60200260200101518584815181106108d2576108d2611a00565b6020026020010151610c26565b600101610881565b6108ef610b5b565b6108f96000610c78565b565b3360009081526004602052604090205460ff166109485760405162461bcd60e51b815260206004820152600b60248201526a18d85b9b9bdd081b5a5b9d60aa1b604482015260640161056b565b825160005b818110156105ef576109bb85828151811061096a5761096a611a00565b602002602001015185838151811061098457610984611a00565b602002602001015185848151811061099e5761099e611a00565b602002602001015160405180602001604052806000815250610cca565b60010161094d565b6109cb610b5b565b6001600160a01b038116600081815260046020908152604091829020805460ff1916600190811790915591519182527fc6a23a0a2412457bc174b0b04538a04d162131389a2e6bafcb3c90d104004e169101610483565b610a2d338383610d27565b5050565b6001600160a01b03918216600090815260016020908152604080832093909416825291909152205460ff1690565b336001600160a01b0386168114801590610a805750610a7e8682610a31565b155b15610ab15760405163711bec9160e11b81526001600160a01b0380831660048301528716602482015260440161056b565b6106558686868686610dbd565b610ac6610b5b565b6001600160a01b038116610af057604051631e4fbdf760e01b81526000600482015260240161056b565b610af981610c78565b50565b610b04610b5b565b6001600160a01b038116600081815260056020908152604091829020805460ff1916600190811790915591519182527f61a38e21a1257ef9bf772ad61a4037c14a202b3730233b7253c725443c132d2d9101610483565b6003546001600160a01b031633146108f95760405163118cdaa760e01b815233600482015260240161056b565b6001600160a01b038416610bb257604051632bfa23e760e11b81526000600482015260240161056b565b610bc0600085858585610e4b565b50505050565b6001600160a01b038416610bf057604051632bfa23e760e11b81526000600482015260240161056b565b6001600160a01b038516610c1957604051626a0d4560e21b81526000600482015260240161056b565b6105ef8585858585610e4b565b6001600160a01b038316610c4f57604051626a0d4560e21b81526000600482015260240161056b565b61070c836000848460405180602001604052806000815250610e4b565b6002610a2d8282611a7a565b600380546001600160a01b038381166001600160a01b0319831681179093556040519116919082907f8be0079c531659141344cd1fd0a4f28419497f9722a3daafe3b4186f6b6457e090600090a35050565b6001600160a01b038416610cf457604051632bfa23e760e11b81526000600482015260240161056b565b60408051600180825260208201869052818301908152606082018590526080820190925290610655600087848487610e4b565b6001600160a01b038216610d505760405162ced3e160e81b81526000600482015260240161056b565b6001600160a01b03838116600081815260016020908152604080832094871680845294825291829020805460ff191686151590811790915591519182527f17307eab39ab6107e8899845ad3d59bd9653f200f220920489ca2b5937696c31910160405180910390a3505050565b6001600160a01b038416610de757604051632bfa23e760e11b81526000600482015260240161056b565b6001600160a01b038516610e1057604051626a0d4560e21b81526000600482015260240161056b565b60408051600180825260208201869052818301908152606082018590526080820190925290610e428787848487610e4b565b50505050505050565b610e5785858585610e9e565b6001600160a01b038416156105ef5782513390600103610e905760208481015190840151610e898389898585896110b2565b5050610655565b6106558187878787876111d6565b8051825114610ecd5781518151604051635b05999160e01b81526004810192909252602482015260440161056b565b3360005b8351811015610fd3576020818102858101820151908501909101516001600160a01b03881615610f84576000828152602081815260408083206001600160a01b038c16845290915290205481811015610f5d576040516303dee4c560e01b81526001600160a01b038a16600482015260248101829052604481018390526064810184905260840161056b565b6000838152602081815260408083206001600160a01b038d16845290915290209082900390555b6001600160a01b03871615610fc9576000828152602081815260408083206001600160a01b038b16845290915281208054839290610fc3908490611b39565b90915550505b5050600101610ed1565b5082516001036110545760208301516000906020840151909150856001600160a01b0316876001600160a01b0316846001600160a01b03167fc3d58168c5ae7397731d063d5bbf3d657854427343f4c083240f7aacaa2d0f628585604051611045929190918252602082015260400190565b60405180910390a450506105ef565b836001600160a01b0316856001600160a01b0316826001600160a01b03167f4a39dc06d4c0dbc64b70af90fd698a233a518aa5d07e595d983b8c0526c8f7fb86866040516110a3929190611b5a565b60405180910390a45050505050565b6001600160a01b0384163b156106555760405163f23a6e6160e01b81526001600160a01b0385169063f23a6e61906110f69089908990889088908890600401611b88565b6020604051808303816000875af1925050508015611131575060408051601f3d908101601f1916820190925261112e91810190611bcd565b60015b61119a573d80801561115f576040519150601f19603f3d011682016040523d82523d6000602084013e611164565b606091505b50805160000361119257604051632bfa23e760e11b81526001600160a01b038616600482015260240161056b565b805181602001fd5b6001600160e01b0319811663f23a6e6160e01b14610e4257604051632bfa23e760e11b81526001600160a01b038616600482015260240161056b565b6001600160a01b0384163b156106555760405163bc197c8160e01b81526001600160a01b0385169063bc197c819061121a9089908990889088908890600401611bea565b6020604051808303816000875af1925050508015611255575060408051601f3d908101601f1916820190925261125291810190611bcd565b60015b611283573d80801561115f576040519150601f19603f3d011682016040523d82523d6000602084013e611164565b6001600160e01b0319811663bc197c8160e01b14610e4257604051632bfa23e760e11b81526001600160a01b038616600482015260240161056b565b80356001600160a01b03811681146112d657600080fd5b919050565b600080604083850312156112ee57600080fd5b6112f7836112bf565b946020939093013593505050565b6001600160e01b031981168114610af957600080fd5b60006020828403121561132d57600080fd5b813561133881611305565b9392505050565b60006020828403121561135157600080fd5b611338826112bf565b60006020828403121561136c57600080fd5b5035919050565b60005b8381101561138e578181015183820152602001611376565b50506000910152565b600081518084526113af816020860160208601611373565b601f01601f19169290920160200192915050565b6020815260006113386020830184611397565b634e487b7160e01b600052604160045260246000fd5b604051601f8201601f191681016001600160401b0381118282101715611414576114146113d6565b604052919050565b60006001600160401b03821115611435576114356113d6565b5060051b60200190565b600082601f83011261145057600080fd5b813560206114656114608361141c565b6113ec565b8083825260208201915060208460051b87010193508684111561148757600080fd5b602086015b848110156114aa5761149d816112bf565b835291830191830161148c565b509695505050505050565b600082601f8301126114c657600080fd5b813560206114d66114608361141c565b8083825260208201915060208460051b8701019350868411156114f857600080fd5b602086015b848110156114aa57803583529183019183016114fd565b600082601f83011261152557600080fd5b813560206115356114608361141c565b82815260059290921b8401810191818101908684111561155457600080fd5b8286015b848110156114aa5780356001600160401b038111156115775760008081fd5b6115858986838b01016114b5565b845250918301918301611558565b6000806000606084860312156115a857600080fd5b83356001600160401b03808211156115bf57600080fd5b6115cb8783880161143f565b945060208601359150808211156115e157600080fd5b6115ed87838801611514565b9350604086013591508082111561160357600080fd5b5061161086828701611514565b9150509250925092565b60006001600160401b03831115611633576116336113d6565b611646601f8401601f19166020016113ec565b905082815283838301111561165a57600080fd5b828260208301376000602084830101529392505050565b600082601f83011261168257600080fd5b6113388383356020850161161a565b600080600080600060a086880312156116a957600080fd5b6116b2866112bf565b94506116c0602087016112bf565b935060408601356001600160401b03808211156116dc57600080fd5b6116e889838a016114b5565b945060608801359150808211156116fe57600080fd5b61170a89838a016114b5565b9350608088013591508082111561172057600080fd5b5061172d88828901611671565b9150509295509295909350565b60008060006060848603121561174f57600080fd5b611758846112bf565b925060208401356001600160401b038082111561177457600080fd5b611780878388016114b5565b9350604086013591508082111561179657600080fd5b50611610868287016114b5565b600080604083850312156117b657600080fd5b82356001600160401b03808211156117cd57600080fd5b6117d98683870161143f565b935060208501359150808211156117ef57600080fd5b506117fc858286016114b5565b9150509250929050565b60008151808452602080850194506020840160005b838110156118375781518752958201959082019060010161181b565b509495945050505050565b6020815260006113386020830184611806565b60006020828403121561186757600080fd5b81356001600160401b0381111561187d57600080fd5b8201601f8101841361188e57600080fd5b61189d8482356020840161161a565b949350505050565b6000806000606084860312156118ba57600080fd5b83356001600160401b03808211156118d157600080fd5b6118dd8783880161143f565b9450602086013591508082111561177457600080fd5b6000806040838503121561190657600080fd5b61190f836112bf565b91506020830135801515811461192457600080fd5b809150509250929050565b6000806040838503121561194257600080fd5b61194b836112bf565b9150611959602084016112bf565b90509250929050565b600080600080600060a0868803121561197a57600080fd5b611983866112bf565b9450611991602087016112bf565b9350604086013592506060860135915060808601356001600160401b038111156119ba57600080fd5b61172d88828901611671565b600181811c908216806119da57607f821691505b6020821081036119fa57634e487b7160e01b600052602260045260246000fd5b50919050565b634e487b7160e01b600052603260045260246000fd5b60008251611a28818460208701611373565b9190910192915050565b601f82111561070c576000816000526020600020601f850160051c81016020861015611a5b5750805b601f850160051c820191505b8181101561065557828155600101611a67565b81516001600160401b03811115611a9357611a936113d6565b611aa781611aa184546119c6565b84611a32565b602080601f831160018114611adc5760008415611ac45750858301515b600019600386901b1c1916600185901b178555610655565b600085815260208120601f198616915b82811015611b0b57888601518255948401946001909101908401611aec565b5085821015611b295787850151600019600388901b60f8161c191681555b5050505050600190811b01905550565b808201808211156103da57634e487b7160e01b600052601160045260246000fd5b604081526000611b6d6040830185611806565b8281036020840152611b7f8185611806565b95945050505050565b6001600160a01b03868116825285166020820152604081018490526060810183905260a060808201819052600090611bc290830184611397565b979650505050505050565b600060208284031215611bdf57600080fd5b815161133881611305565b6001600160a01b0386811682528516602082015260a060408201819052600090611c1690830186611806565b8281036060840152611c288186611806565b90508281036080840152611c3c8185611397565b9897505050505050505056fea2646970667358221220354af6fb4a2248e76780f0ecdd712aaec1236c4e8b854284aded4deef508cd0b64736f6c63430008180033",
  "devdoc": {
    "errors": {
      "ERC1155InsufficientBalance(address,uint256,uint256,uint256)": [
        {
          "details": "Indicates an error related to the current `balance` of a `sender`. Used in transfers.",
          "params": {
            "balance": "Current balance for the interacting account.",
            "needed": "Minimum amount required to perform a transfer.",
            "sender": "Address whose tokens are being transferred.",
            "tokenId": "Identifier number of a token."
          }
        }
      ],
      "ERC1155InvalidApprover(address)": [
        {
          "details": "Indicates a failure with the `approver` of a token to be approved. Used in approvals.",
          "params": {
            "approver": "Address initiating an approval operation."
          }
        }
      ],
      "ERC1155InvalidArrayLength(uint256,uint256)": [
        {
          "details": "Indicates an array length mismatch between ids and values in a safeBatchTransferFrom operation. Used in batch transfers.",
          "params": {
            "idsLength": "Length of the array of token identifiers",
            "valuesLength": "Length of the array of token amounts"
          }
        }
      ],
      "ERC1155InvalidOperator(address)": [
        {
          "details": "Indicates a failure with the `operator` to be approved. Used in approvals.",
          "params": {
            "operator": "Address that may be allowed to operate on tokens without being their owner."
          }
        }
      ],
      "ERC1155InvalidReceiver(address)": [
        {
          "details": "Indicates a failure with the token `receiver`. Used in transfers.",
          "params": {
            "receiver": "Address to which tokens are being transferred."
          }
        }
      ],
      "ERC1155InvalidSender(address)": [
        {
          "details": "Indicates a failure with the token `sender`. Used in transfers.",
          "params": {
            "sender": "Address whose tokens are being transferred."
          }
        }
      ],
      "ERC1155MissingApprovalForAll(address,address)": [
        {
          "details": "Indicates a failure with the `operator`s approval. Used in transfers.",
          "params": {
            "operator": "Address that may be allowed to operate on tokens without being their owner.",
            "owner": "Address of the current owner of a token."
          }
        }
      ],
      "OwnableInvalidOwner(address)": [
        {
          "details": "The owner is not a valid owner account. (eg. `address(0)`)"
        }
      ],
      "OwnableUnauthorizedAccount(address)": [
        {
          "details": "The caller account is not authorized to perform an operation."
        }
      ]
    },
    "events": {
      "ApprovalForAll(address,address,bool)": {
        "details": "Emitted when `account` grants or revokes permission to `operator` to transfer their tokens, according to `approved`."
      },
      "TransferBatch(address,address,address,uint256[],uint256[])": {
        "details": "Equivalent to multiple {TransferSingle} events, where `operator`, `from` and `to` are the same for all transfers."
      },
      "TransferSingle(address,address,address,uint256,uint256)": {
        "details": "Emitted when `value` amount of tokens of type `id` are transferred from `from` to `to` by `operator`."
      },
      "URI(string,uint256)": {
        "details": "Emitted when the URI for token type `id` changes to `value`, if it is a non-programmatic URI. If an {URI} event was emitted for `id`, the standard https://eips.ethereum.org/EIPS/eip-1155#metadata-extensions[guarantees] that `value` will equal the value returned by {IERC1155MetadataURI-uri}."
      }
    },
    "kind": "dev",
    "methods": {
      "addBurner(address)": {
        "params": {
          "_burner": "The new burner account."
        }
      },
      "addMinter(address)": {
        "params": {
          "_minter": "The new minter account."
        }
      },
      "balanceOf(address,uint256)": {
        "details": "See {IERC1155-balanceOf}."
      },
      "balanceOfBatch(address[],uint256[])": {
        "details": "See {IERC1155-balanceOfBatch}. Requirements: - `accounts` and `ids` must have the same length."
      },
      "burn(address,uint256[],uint256[])": {
        "params": {
          "account": "The owner of the cybernetics to burn.",
          "amounts": "The amounts of cybernetics to burn.",
          "ids": "The types of cybernetics to burn."
        }
      },
      "burnBatch(address[],uint256[][],uint256[][])": {
        "params": {
          "accounts": "The owners of the cybernetics to burn.",
          "amounts": "The amounts of cybernetics to burn.",
          "ids": "The types of cybernetics to burn."
        }
      },
      "isApprovedForAll(address,address)": {
        "details": "See {IERC1155-isApprovedForAll}."
      },
      "mint(address[],uint256[],uint256[])": {
        "params": {
          "amounts": "The amounts of cybernetics to mint.",
          "ids": "The types of cybernetics to mint.",
          "recipients": "The recipients of the minted cybernetics."
        }
      },
      "mintBatch(address[],uint256[][],uint256[][])": {
        "params": {
          "amounts": "The amounts of cybernetics to mint per batch.",
          "ids": "The types of cybernetics to mint per batch.",
          "recipients": "The recipients of the minted cybernetics."
        }
      },
      "owner()": {
        "details": "Returns the address of the current owner."
      },
      "removeBurner(address)": {
        "params": {
          "_burner": "The old burner account."
        }
      },
      "removeMinter(address)": {
        "params": {
          "_minter": "The old minter account."
        }
      },
      "renounceOwnership()": {
        "details": "Leaves the contract without owner. It will not be possible to call `onlyOwner` functions. Can only be called by the current owner. NOTE: Renouncing ownership will leave the contract without an owner, thereby disabling any functionality that is only available to the owner."
      },
      "safeBatchTransferFrom(address,address,uint256[],uint256[],bytes)": {
        "details": "See {IERC1155-safeBatchTransferFrom}."
      },
      "safeTransferFrom(address,address,uint256,uint256,bytes)": {
        "details": "See {IERC1155-safeTransferFrom}."
      },
      "setApprovalForAll(address,bool)": {
        "details": "See {IERC1155-setApprovalForAll}."
      },
      "supportsInterface(bytes4)": {
        "details": "See {IERC165-supportsInterface}."
      },
      "transferOwnership(address)": {
        "details": "Transfers ownership of the contract to a new account (`newOwner`). Can only be called by the current owner."
      },
      "updateUri(string)": {
        "params": {
          "_newURI": "The new URI."
        }
      },
      "uri(uint256)": {
        "details": "See {IERC1155MetadataURI-uri}. This implementation returns the same URI for *all* token types. It relies on the token type ID substitution mechanism https://eips.ethereum.org/EIPS/eip-1155#metadata[defined in the EIP]. Clients calling this function must replace the `\\{id\\}` substring with the actual token type ID."
      }
    },
    "stateVariables": {
      "burners": {
        "details": "address => can burn"
      },
      "minters": {
        "details": "address => can mint"
      }
    },
    "title": "Secure Liquid Digital Chip",
    "version": 1
  },
  "userdoc": {
    "events": {
      "UpdateURI(string)": {
        "notice": "----------------------------------------------------------------------- Events -----------------------------------------------------------------------"
      }
    },
    "kind": "user",
    "methods": {
      "NAME()": {
        "notice": "The name of the token."
      },
      "SYMBOL()": {
        "notice": "The symbol of the token."
      },
      "addBurner(address)": {
        "notice": "Whitelists a burner account. Only callable by the owner."
      },
      "addMinter(address)": {
        "notice": "Whitelists a minter account. Only callable by the owner."
      },
      "burn(address,uint256[],uint256[])": {
        "notice": "Burns a batch of cybernetics from single account. Only callable by a burner."
      },
      "burnBatch(address[],uint256[][],uint256[][])": {
        "notice": "Burns batches of cybernetics from multiple accounts. Only callable by a burner."
      },
      "burners(address)": {
        "notice": "Stores info pretaining to whether an account can burn cybernetics."
      },
      "constructor": {
        "notice": "----------------------------------------------------------------------- Initialization -----------------------------------------------------------------------"
      },
      "mint(address[],uint256[],uint256[])": {
        "notice": "Mints cybernetics of a single type per recipient. Only callable by a minter."
      },
      "mintBatch(address[],uint256[][],uint256[][])": {
        "notice": "Mints batches of cybernetics per recipient. Only callable by a minter."
      },
      "minters(address)": {
        "notice": "Stores info pretaining to whether an account can mint cybernetics."
      },
      "removeBurner(address)": {
        "notice": "Deprecates a burner account. Only callable by the owner."
      },
      "removeMinter(address)": {
        "notice": "Deprecates a minter account. Only callable by the owner."
      },
      "updateUri(string)": {
        "notice": "Sets a new URI for all token types. Only callable by the owner."
      }
    },
    "notice": "The research facility for SLD chips.",
    "version": 1
  },
  "storageLayout": {
    "storage": [
      {
        "astId": 1310,
        "contract": "contracts/mock/SecureLiquidDigitalChipMock.sol:SecureLiquidDigitalChipMock",
        "label": "_balances",
        "offset": 0,
        "slot": "0",
        "type": "t_mapping(t_uint256,t_mapping(t_address,t_uint256))"
      },
      {
        "astId": 1316,
        "contract": "contracts/mock/SecureLiquidDigitalChipMock.sol:SecureLiquidDigitalChipMock",
        "label": "_operatorApprovals",
        "offset": 0,
        "slot": "1",
        "type": "t_mapping(t_address,t_mapping(t_address,t_bool))"
      },
      {
        "astId": 1318,
        "contract": "contracts/mock/SecureLiquidDigitalChipMock.sol:SecureLiquidDigitalChipMock",
        "label": "_uri",
        "offset": 0,
        "slot": "2",
        "type": "t_string_storage"
      },
      {
        "astId": 503,
        "contract": "contracts/mock/SecureLiquidDigitalChipMock.sol:SecureLiquidDigitalChipMock",
        "label": "_owner",
        "offset": 0,
        "slot": "3",
        "type": "t_address"
      },
      {
        "astId": 6202,
        "contract": "contracts/mock/SecureLiquidDigitalChipMock.sol:SecureLiquidDigitalChipMock",
        "label": "minters",
        "offset": 0,
        "slot": "4",
        "type": "t_mapping(t_address,t_bool)"
      },
      {
        "astId": 6207,
        "contract": "contracts/mock/SecureLiquidDigitalChipMock.sol:SecureLiquidDigitalChipMock",
        "label": "burners",
        "offset": 0,
        "slot": "5",
        "type": "t_mapping(t_address,t_bool)"
      }
    ],
    "types": {
      "t_address": {
        "encoding": "inplace",
        "label": "address",
        "numberOfBytes": "20"
      },
      "t_bool": {
        "encoding": "inplace",
        "label": "bool",
        "numberOfBytes": "1"
      },
      "t_mapping(t_address,t_bool)": {
        "encoding": "mapping",
        "key": "t_address",
        "label": "mapping(address => bool)",
        "numberOfBytes": "32",
        "value": "t_bool"
      },
      "t_mapping(t_address,t_mapping(t_address,t_bool))": {
        "encoding": "mapping",
        "key": "t_address",
        "label": "mapping(address => mapping(address => bool))",
        "numberOfBytes": "32",
        "value": "t_mapping(t_address,t_bool)"
      },
      "t_mapping(t_address,t_uint256)": {
        "encoding": "mapping",
        "key": "t_address",
        "label": "mapping(address => uint256)",
        "numberOfBytes": "32",
        "value": "t_uint256"
      },
      "t_mapping(t_uint256,t_mapping(t_address,t_uint256))": {
        "encoding": "mapping",
        "key": "t_uint256",
        "label": "mapping(uint256 => mapping(address => uint256))",
        "numberOfBytes": "32",
        "value": "t_mapping(t_address,t_uint256)"
      },
      "t_string_storage": {
        "encoding": "bytes",
        "label": "string",
        "numberOfBytes": "32"
      },
      "t_uint256": {
        "encoding": "inplace",
        "label": "uint256",
        "numberOfBytes": "32"
      }
    }
  }
}